{
  "_format": "hh-sol-artifact-1",
  "contractName": "ContentPlatform",
  "sourceName": "contracts/ContentPlatform.sol",
  "abi": [
    {
      "anonymous": false,
      "inputs": [
        {
          "indexed": true,
          "internalType": "uint256",
          "name": "id",
          "type": "uint256"
        },
        {
          "indexed": true,
          "internalType": "address",
          "name": "admin",
          "type": "address"
        }
      ],
      "name": "ContentApproved",
      "type": "event"
    },
    {
      "anonymous": false,
      "inputs": [
        {
          "indexed": true,
          "internalType": "uint256",
          "name": "id",
          "type": "uint256"
        },
        {
          "indexed": true,
          "internalType": "address",
          "name": "creator",
          "type": "address"
        },
        {
          "indexed": false,
          "internalType": "string",
          "name": "title",
          "type": "string"
        },
        {
          "indexed": false,
          "internalType": "string",
          "name": "description",
          "type": "string"
        },
        {
          "indexed": false,
          "internalType": "string",
          "name": "ipfsHash",
          "type": "string"
        },
        {
          "indexed": false,
          "internalType": "uint256",
          "name": "price",
          "type": "uint256"
        },
        {
          "indexed": false,
          "internalType": "enum ContentPlatform.ContentType",
          "name": "contentType",
          "type": "uint8"
        }
      ],
      "name": "ContentCreated",
      "type": "event"
    },
    {
      "anonymous": false,
      "inputs": [
        {
          "indexed": true,
          "internalType": "uint256",
          "name": "id",
          "type": "uint256"
        },
        {
          "indexed": true,
          "internalType": "address",
          "name": "creator",
          "type": "address"
        }
      ],
      "name": "ContentDeleted",
      "type": "event"
    },
    {
      "anonymous": false,
      "inputs": [
        {
          "indexed": true,
          "internalType": "uint256",
          "name": "id",
          "type": "uint256"
        },
        {
          "indexed": true,
          "internalType": "address",
          "name": "buyer",
          "type": "address"
        },
        {
          "indexed": true,
          "internalType": "address",
          "name": "creator",
          "type": "address"
        },
        {
          "indexed": false,
          "internalType": "string",
          "name": "ipfsHash",
          "type": "string"
        },
        {
          "indexed": false,
          "internalType": "uint256",
          "name": "price",
          "type": "uint256"
        }
      ],
      "name": "ContentPurchased",
      "type": "event"
    },
    {
      "anonymous": false,
      "inputs": [
        {
          "indexed": true,
          "internalType": "uint256",
          "name": "id",
          "type": "uint256"
        },
        {
          "indexed": true,
          "internalType": "address",
          "name": "admin",
          "type": "address"
        }
      ],
      "name": "ContentRejected",
      "type": "event"
    },
    {
      "anonymous": false,
      "inputs": [
        {
          "indexed": true,
          "internalType": "uint256",
          "name": "id",
          "type": "uint256"
        },
        {
          "indexed": true,
          "internalType": "address",
          "name": "creator",
          "type": "address"
        },
        {
          "indexed": false,
          "internalType": "string",
          "name": "title",
          "type": "string"
        },
        {
          "indexed": false,
          "internalType": "string",
          "name": "description",
          "type": "string"
        },
        {
          "indexed": false,
          "internalType": "string",
          "name": "ipfsHash",
          "type": "string"
        },
        {
          "indexed": false,
          "internalType": "uint256",
          "name": "price",
          "type": "uint256"
        },
        {
          "indexed": false,
          "internalType": "enum ContentPlatform.ContentType",
          "name": "contentType",
          "type": "uint8"
        }
      ],
      "name": "ContentSubmitted",
      "type": "event"
    },
    {
      "anonymous": false,
      "inputs": [
        {
          "indexed": true,
          "internalType": "address",
          "name": "previousOwner",
          "type": "address"
        },
        {
          "indexed": true,
          "internalType": "address",
          "name": "newOwner",
          "type": "address"
        }
      ],
      "name": "OwnershipTransferred",
      "type": "event"
    },
    {
      "inputs": [
        {
          "internalType": "uint256",
          "name": "_id",
          "type": "uint256"
        },
        {
          "internalType": "string",
          "name": "_ipfsHash",
          "type": "string"
        }
      ],
      "name": "approveContent",
      "outputs": [],
      "stateMutability": "nonpayable",
      "type": "function"
    },
    {
      "inputs": [],
      "name": "contentCount",
      "outputs": [
        {
          "internalType": "uint256",
          "name": "",
          "type": "uint256"
        }
      ],
      "stateMutability": "view",
      "type": "function"
    },
    {
      "inputs": [
        {
          "internalType": "address",
          "name": "",
          "type": "address"
        },
        {
          "internalType": "uint256",
          "name": "",
          "type": "uint256"
        }
      ],
      "name": "contentPurchases",
      "outputs": [
        {
          "internalType": "bool",
          "name": "",
          "type": "bool"
        }
      ],
      "stateMutability": "view",
      "type": "function"
    },
    {
      "inputs": [
        {
          "internalType": "uint256",
          "name": "",
          "type": "uint256"
        }
      ],
      "name": "contents",
      "outputs": [
        {
          "internalType": "uint256",
          "name": "id",
          "type": "uint256"
        },
        {
          "internalType": "address",
          "name": "creator",
          "type": "address"
        },
        {
          "internalType": "string",
          "name": "title",
          "type": "string"
        },
        {
          "internalType": "string",
          "name": "description",
          "type": "string"
        },
        {
          "internalType": "string",
          "name": "ipfsHash",
          "type": "string"
        },
        {
          "internalType": "uint256",
          "name": "price",
          "type": "uint256"
        },
        {
          "internalType": "bool",
          "name": "isActive",
          "type": "bool"
        },
        {
          "internalType": "enum ContentPlatform.ContentType",
          "name": "contentType",
          "type": "uint8"
        },
        {
          "internalType": "enum ContentPlatform.ContentStatus",
          "name": "status",
          "type": "uint8"
        },
        {
          "components": [
            {
              "internalType": "bool",
              "name": "viewOnly",
              "type": "bool"
            },
            {
              "internalType": "bool",
              "name": "download",
              "type": "bool"
            }
          ],
          "internalType": "struct ContentPlatform.Permission",
          "name": "permissions",
          "type": "tuple"
        }
      ],
      "stateMutability": "view",
      "type": "function"
    },
    {
      "inputs": [
        {
          "internalType": "bytes32",
          "name": "",
          "type": "bytes32"
        }
      ],
      "name": "existingContentHashes",
      "outputs": [
        {
          "internalType": "bool",
          "name": "",
          "type": "bool"
        }
      ],
      "stateMutability": "view",
      "type": "function"
    },
    {
      "inputs": [],
      "name": "getApprovedContents",
      "outputs": [
        {
          "components": [
            {
              "internalType": "uint256",
              "name": "id",
              "type": "uint256"
            },
            {
              "internalType": "address",
              "name": "creator",
              "type": "address"
            },
            {
              "internalType": "string",
              "name": "title",
              "type": "string"
            },
            {
              "internalType": "string",
              "name": "description",
              "type": "string"
            },
            {
              "internalType": "string",
              "name": "ipfsHash",
              "type": "string"
            },
            {
              "internalType": "uint256",
              "name": "price",
              "type": "uint256"
            },
            {
              "internalType": "bool",
              "name": "isActive",
              "type": "bool"
            },
            {
              "internalType": "enum ContentPlatform.ContentType",
              "name": "contentType",
              "type": "uint8"
            },
            {
              "internalType": "enum ContentPlatform.ContentStatus",
              "name": "status",
              "type": "uint8"
            },
            {
              "components": [
                {
                  "internalType": "bool",
                  "name": "viewOnly",
                  "type": "bool"
                },
                {
                  "internalType": "bool",
                  "name": "download",
                  "type": "bool"
                }
              ],
              "internalType": "struct ContentPlatform.Permission",
              "name": "permissions",
              "type": "tuple"
            }
          ],
          "internalType": "struct ContentPlatform.Content[]",
          "name": "",
          "type": "tuple[]"
        }
      ],
      "stateMutability": "view",
      "type": "function"
    },
    {
      "inputs": [],
      "name": "getAvailableContents",
      "outputs": [
        {
          "components": [
            {
              "internalType": "uint256",
              "name": "id",
              "type": "uint256"
            },
            {
              "internalType": "address",
              "name": "creator",
              "type": "address"
            },
            {
              "internalType": "string",
              "name": "title",
              "type": "string"
            },
            {
              "internalType": "string",
              "name": "description",
              "type": "string"
            },
            {
              "internalType": "string",
              "name": "ipfsHash",
              "type": "string"
            },
            {
              "internalType": "uint256",
              "name": "price",
              "type": "uint256"
            },
            {
              "internalType": "bool",
              "name": "isActive",
              "type": "bool"
            },
            {
              "internalType": "enum ContentPlatform.ContentType",
              "name": "contentType",
              "type": "uint8"
            },
            {
              "internalType": "enum ContentPlatform.ContentStatus",
              "name": "status",
              "type": "uint8"
            },
            {
              "components": [
                {
                  "internalType": "bool",
                  "name": "viewOnly",
                  "type": "bool"
                },
                {
                  "internalType": "bool",
                  "name": "download",
                  "type": "bool"
                }
              ],
              "internalType": "struct ContentPlatform.Permission",
              "name": "permissions",
              "type": "tuple"
            }
          ],
          "internalType": "struct ContentPlatform.Content[]",
          "name": "",
          "type": "tuple[]"
        }
      ],
      "stateMutability": "view",
      "type": "function"
    },
    {
      "inputs": [
        {
          "internalType": "uint256",
          "name": "_id",
          "type": "uint256"
        }
      ],
      "name": "getContent",
      "outputs": [
        {
          "components": [
            {
              "internalType": "uint256",
              "name": "id",
              "type": "uint256"
            },
            {
              "internalType": "address",
              "name": "creator",
              "type": "address"
            },
            {
              "internalType": "string",
              "name": "title",
              "type": "string"
            },
            {
              "internalType": "string",
              "name": "description",
              "type": "string"
            },
            {
              "internalType": "string",
              "name": "ipfsHash",
              "type": "string"
            },
            {
              "internalType": "uint256",
              "name": "price",
              "type": "uint256"
            },
            {
              "internalType": "bool",
              "name": "isActive",
              "type": "bool"
            },
            {
              "internalType": "enum ContentPlatform.ContentType",
              "name": "contentType",
              "type": "uint8"
            },
            {
              "internalType": "enum ContentPlatform.ContentStatus",
              "name": "status",
              "type": "uint8"
            },
            {
              "components": [
                {
                  "internalType": "bool",
                  "name": "viewOnly",
                  "type": "bool"
                },
                {
                  "internalType": "bool",
                  "name": "download",
                  "type": "bool"
                }
              ],
              "internalType": "struct ContentPlatform.Permission",
              "name": "permissions",
              "type": "tuple"
            }
          ],
          "internalType": "struct ContentPlatform.Content",
          "name": "",
          "type": "tuple"
        }
      ],
      "stateMutability": "view",
      "type": "function"
    },
    {
      "inputs": [
        {
          "internalType": "string",
          "name": "_ipfsHash",
          "type": "string"
        }
      ],
      "name": "getContentByHash",
      "outputs": [
        {
          "internalType": "bool",
          "name": "",
          "type": "bool"
        },
        {
          "components": [
            {
              "internalType": "uint256",
              "name": "id",
              "type": "uint256"
            },
            {
              "internalType": "address",
              "name": "creator",
              "type": "address"
            },
            {
              "internalType": "string",
              "name": "title",
              "type": "string"
            },
            {
              "internalType": "string",
              "name": "description",
              "type": "string"
            },
            {
              "internalType": "string",
              "name": "ipfsHash",
              "type": "string"
            },
            {
              "internalType": "uint256",
              "name": "price",
              "type": "uint256"
            },
            {
              "internalType": "bool",
              "name": "isActive",
              "type": "bool"
            },
            {
              "internalType": "enum ContentPlatform.ContentType",
              "name": "contentType",
              "type": "uint8"
            },
            {
              "internalType": "enum ContentPlatform.ContentStatus",
              "name": "status",
              "type": "uint8"
            },
            {
              "components": [
                {
                  "internalType": "bool",
                  "name": "viewOnly",
                  "type": "bool"
                },
                {
                  "internalType": "bool",
                  "name": "download",
                  "type": "bool"
                }
              ],
              "internalType": "struct ContentPlatform.Permission",
              "name": "permissions",
              "type": "tuple"
            }
          ],
          "internalType": "struct ContentPlatform.Content",
          "name": "",
          "type": "tuple"
        }
      ],
      "stateMutability": "view",
      "type": "function"
    },
    {
      "inputs": [
        {
          "internalType": "uint256",
          "name": "_id",
          "type": "uint256"
        }
      ],
      "name": "getContentPermissions",
      "outputs": [
        {
          "components": [
            {
              "internalType": "bool",
              "name": "viewOnly",
              "type": "bool"
            },
            {
              "internalType": "bool",
              "name": "download",
              "type": "bool"
            }
          ],
          "internalType": "struct ContentPlatform.Permission",
          "name": "",
          "type": "tuple"
        }
      ],
      "stateMutability": "view",
      "type": "function"
    },
    {
      "inputs": [
        {
          "internalType": "address",
          "name": "_creator",
          "type": "address"
        }
      ],
      "name": "getCreatorContents",
      "outputs": [
        {
          "components": [
            {
              "internalType": "uint256",
              "name": "id",
              "type": "uint256"
            },
            {
              "internalType": "address",
              "name": "creator",
              "type": "address"
            },
            {
              "internalType": "string",
              "name": "title",
              "type": "string"
            },
            {
              "internalType": "string",
              "name": "description",
              "type": "string"
            },
            {
              "internalType": "string",
              "name": "ipfsHash",
              "type": "string"
            },
            {
              "internalType": "uint256",
              "name": "price",
              "type": "uint256"
            },
            {
              "internalType": "bool",
              "name": "isActive",
              "type": "bool"
            },
            {
              "internalType": "enum ContentPlatform.ContentType",
              "name": "contentType",
              "type": "uint8"
            },
            {
              "internalType": "enum ContentPlatform.ContentStatus",
              "name": "status",
              "type": "uint8"
            },
            {
              "components": [
                {
                  "internalType": "bool",
                  "name": "viewOnly",
                  "type": "bool"
                },
                {
                  "internalType": "bool",
                  "name": "download",
                  "type": "bool"
                }
              ],
              "internalType": "struct ContentPlatform.Permission",
              "name": "permissions",
              "type": "tuple"
            }
          ],
          "internalType": "struct ContentPlatform.Content[]",
          "name": "",
          "type": "tuple[]"
        }
      ],
      "stateMutability": "view",
      "type": "function"
    },
    {
      "inputs": [],
      "name": "getPendingContents",
      "outputs": [
        {
          "components": [
            {
              "internalType": "uint256",
              "name": "id",
              "type": "uint256"
            },
            {
              "internalType": "address",
              "name": "creator",
              "type": "address"
            },
            {
              "internalType": "string",
              "name": "title",
              "type": "string"
            },
            {
              "internalType": "string",
              "name": "description",
              "type": "string"
            },
            {
              "internalType": "string",
              "name": "ipfsHash",
              "type": "string"
            },
            {
              "internalType": "uint256",
              "name": "price",
              "type": "uint256"
            },
            {
              "internalType": "bool",
              "name": "isActive",
              "type": "bool"
            },
            {
              "internalType": "enum ContentPlatform.ContentType",
              "name": "contentType",
              "type": "uint8"
            },
            {
              "internalType": "enum ContentPlatform.ContentStatus",
              "name": "status",
              "type": "uint8"
            },
            {
              "components": [
                {
                  "internalType": "bool",
                  "name": "viewOnly",
                  "type": "bool"
                },
                {
                  "internalType": "bool",
                  "name": "download",
                  "type": "bool"
                }
              ],
              "internalType": "struct ContentPlatform.Permission",
              "name": "permissions",
              "type": "tuple"
            }
          ],
          "internalType": "struct ContentPlatform.Content[]",
          "name": "",
          "type": "tuple[]"
        }
      ],
      "stateMutability": "view",
      "type": "function"
    },
    {
      "inputs": [
        {
          "internalType": "address",
          "name": "_buyer",
          "type": "address"
        }
      ],
      "name": "getPurchasedContents",
      "outputs": [
        {
          "components": [
            {
              "internalType": "uint256",
              "name": "id",
              "type": "uint256"
            },
            {
              "internalType": "address",
              "name": "creator",
              "type": "address"
            },
            {
              "internalType": "string",
              "name": "title",
              "type": "string"
            },
            {
              "internalType": "string",
              "name": "description",
              "type": "string"
            },
            {
              "internalType": "string",
              "name": "ipfsHash",
              "type": "string"
            },
            {
              "internalType": "uint256",
              "name": "price",
              "type": "uint256"
            },
            {
              "internalType": "bool",
              "name": "isActive",
              "type": "bool"
            },
            {
              "internalType": "enum ContentPlatform.ContentType",
              "name": "contentType",
              "type": "uint8"
            },
            {
              "internalType": "enum ContentPlatform.ContentStatus",
              "name": "status",
              "type": "uint8"
            },
            {
              "components": [
                {
                  "internalType": "bool",
                  "name": "viewOnly",
                  "type": "bool"
                },
                {
                  "internalType": "bool",
                  "name": "download",
                  "type": "bool"
                }
              ],
              "internalType": "struct ContentPlatform.Permission",
              "name": "permissions",
              "type": "tuple"
            }
          ],
          "internalType": "struct ContentPlatform.Content[]",
          "name": "",
          "type": "tuple[]"
        }
      ],
      "stateMutability": "view",
      "type": "function"
    },
    {
      "inputs": [],
      "name": "getRejectedContents",
      "outputs": [
        {
          "components": [
            {
              "internalType": "uint256",
              "name": "id",
              "type": "uint256"
            },
            {
              "internalType": "address",
              "name": "creator",
              "type": "address"
            },
            {
              "internalType": "string",
              "name": "title",
              "type": "string"
            },
            {
              "internalType": "string",
              "name": "description",
              "type": "string"
            },
            {
              "internalType": "string",
              "name": "ipfsHash",
              "type": "string"
            },
            {
              "internalType": "uint256",
              "name": "price",
              "type": "uint256"
            },
            {
              "internalType": "bool",
              "name": "isActive",
              "type": "bool"
            },
            {
              "internalType": "enum ContentPlatform.ContentType",
              "name": "contentType",
              "type": "uint8"
            },
            {
              "internalType": "enum ContentPlatform.ContentStatus",
              "name": "status",
              "type": "uint8"
            },
            {
              "components": [
                {
                  "internalType": "bool",
                  "name": "viewOnly",
                  "type": "bool"
                },
                {
                  "internalType": "bool",
                  "name": "download",
                  "type": "bool"
                }
              ],
              "internalType": "struct ContentPlatform.Permission",
              "name": "permissions",
              "type": "tuple"
            }
          ],
          "internalType": "struct ContentPlatform.Content[]",
          "name": "",
          "type": "tuple[]"
        }
      ],
      "stateMutability": "view",
      "type": "function"
    },
    {
      "inputs": [
        {
          "internalType": "address",
          "name": "_creator",
          "type": "address"
        }
      ],
      "name": "getSoldContentsAndIncome",
      "outputs": [
        {
          "components": [
            {
              "internalType": "uint256",
              "name": "id",
              "type": "uint256"
            },
            {
              "internalType": "address",
              "name": "creator",
              "type": "address"
            },
            {
              "internalType": "string",
              "name": "title",
              "type": "string"
            },
            {
              "internalType": "string",
              "name": "description",
              "type": "string"
            },
            {
              "internalType": "string",
              "name": "ipfsHash",
              "type": "string"
            },
            {
              "internalType": "uint256",
              "name": "price",
              "type": "uint256"
            },
            {
              "internalType": "bool",
              "name": "isActive",
              "type": "bool"
            },
            {
              "internalType": "enum ContentPlatform.ContentType",
              "name": "contentType",
              "type": "uint8"
            },
            {
              "internalType": "enum ContentPlatform.ContentStatus",
              "name": "status",
              "type": "uint8"
            },
            {
              "components": [
                {
                  "internalType": "bool",
                  "name": "viewOnly",
                  "type": "bool"
                },
                {
                  "internalType": "bool",
                  "name": "download",
                  "type": "bool"
                }
              ],
              "internalType": "struct ContentPlatform.Permission",
              "name": "permissions",
              "type": "tuple"
            }
          ],
          "internalType": "struct ContentPlatform.Content[]",
          "name": "",
          "type": "tuple[]"
        },
        {
          "internalType": "uint256",
          "name": "",
          "type": "uint256"
        }
      ],
      "stateMutability": "view",
      "type": "function"
    },
    {
      "inputs": [],
      "name": "owner",
      "outputs": [
        {
          "internalType": "address",
          "name": "",
          "type": "address"
        }
      ],
      "stateMutability": "view",
      "type": "function"
    },
    {
      "inputs": [
        {
          "internalType": "uint256",
          "name": "_id",
          "type": "uint256"
        }
      ],
      "name": "purchaseContent",
      "outputs": [],
      "stateMutability": "payable",
      "type": "function"
    },
    {
      "inputs": [
        {
          "internalType": "uint256",
          "name": "_id",
          "type": "uint256"
        }
      ],
      "name": "rejectContent",
      "outputs": [],
      "stateMutability": "nonpayable",
      "type": "function"
    },
    {
      "inputs": [],
      "name": "renounceOwnership",
      "outputs": [],
      "stateMutability": "nonpayable",
      "type": "function"
    },
    {
      "inputs": [
        {
          "internalType": "string",
          "name": "_title",
          "type": "string"
        },
        {
          "internalType": "string",
          "name": "_description",
          "type": "string"
        },
        {
          "internalType": "string",
          "name": "_ipfsHash",
          "type": "string"
        },
        {
          "internalType": "uint256",
          "name": "_price",
          "type": "uint256"
        },
        {
          "internalType": "enum ContentPlatform.ContentType",
          "name": "_contentType",
          "type": "uint8"
        },
        {
          "components": [
            {
              "internalType": "bool",
              "name": "viewOnly",
              "type": "bool"
            },
            {
              "internalType": "bool",
              "name": "download",
              "type": "bool"
            }
          ],
          "internalType": "struct ContentPlatform.Permission",
          "name": "_permissions",
          "type": "tuple"
        }
      ],
      "name": "submitContentForReview",
      "outputs": [],
      "stateMutability": "nonpayable",
      "type": "function"
    },
    {
      "inputs": [
        {
          "internalType": "uint256",
          "name": "_id",
          "type": "uint256"
        }
      ],
      "name": "toggleContentStatus",
      "outputs": [],
      "stateMutability": "nonpayable",
      "type": "function"
    },
    {
      "inputs": [
        {
          "internalType": "address",
          "name": "newOwner",
          "type": "address"
        }
      ],
      "name": "transferOwnership",
      "outputs": [],
      "stateMutability": "nonpayable",
      "type": "function"
    }
  ],
  "bytecode": "0x60806040523480156200001157600080fd5b5062000032620000266200003860201b60201c565b6200004060201b60201c565b62000104565b600033905090565b60008060009054906101000a900473ffffffffffffffffffffffffffffffffffffffff169050816000806101000a81548173ffffffffffffffffffffffffffffffffffffffff021916908373ffffffffffffffffffffffffffffffffffffffff1602179055508173ffffffffffffffffffffffffffffffffffffffff168173ffffffffffffffffffffffffffffffffffffffff167f8be0079c531659141344cd1fd0a4f28419497f9722a3daafe3b4186f6b6457e060405160405180910390a35050565b61568180620001146000396000f3fe6080604052600436106101355760003560e01c80637e35be1a116100ab578063b2af56af1161006f578063b2af56af14610455578063b5ecf91214610480578063b6e1d980146104c6578063cc459696146104ef578063de87c22c1461051a578063f2fde38b1461054357610135565b80637e35be1a14610359578063860115df146103845780638da5cb5b146103c257806391298e05146103ed5780639e2346b21461042a57610135565b806340374733116100fd57806340374733146102245780634a34d672146102615780635ffcabee1461029e57806366a3ee52146102db578063715018a614610319578063786cebe91461033057610135565b8063017ff7e51461013a5780630b7ad54c1461017757806328f2ac28146101b4578063395eaaf3146101d05780633aab9782146101fb575b600080fd5b34801561014657600080fd5b50610161600480360381019061015c9190614036565b61056c565b60405161016e91906143ce565b60405180910390f35b34801561018357600080fd5b5061019e6004803603810190610199919061441c565b610a37565b6040516101ab9190614531565b60405180910390f35b6101ce60048036038101906101c9919061441c565b610d60565b005b3480156101dc57600080fd5b506101e561101c565b6040516101f291906143ce565b60405180910390f35b34801561020757600080fd5b50610222600480360381019061021d919061441c565b6114bd565b005b34801561023057600080fd5b5061024b60048036038101906102469190614036565b6115c9565b60405161025891906143ce565b60405180910390f35b34801561026d57600080fd5b5061028860048036038101906102839190614589565b611aa0565b60405161029591906145c5565b60405180910390f35b3480156102aa57600080fd5b506102c560048036038101906102c091906145e0565b611ac0565b6040516102d291906145c5565b60405180910390f35b3480156102e757600080fd5b5061030260048036038101906102fd9190614755565b611aef565b60405161031092919061479e565b60405180910390f35b34801561032557600080fd5b5061032e611f88565b005b34801561033c57600080fd5b506103576004803603810190610352919061441c565b611f9c565b005b34801561036557600080fd5b5061036e612097565b60405161037b91906143ce565b60405180910390f35b34801561039057600080fd5b506103ab60048036038101906103a69190614036565b6124ec565b6040516103b99291906147dd565b60405180910390f35b3480156103ce57600080fd5b506103d7612b10565b6040516103e4919061481c565b60405180910390f35b3480156103f957600080fd5b50610414600480360381019061040f919061441c565b612b39565b6040516104219190614866565b60405180910390f35b34801561043657600080fd5b5061043f612b9f565b60405161044c91906143ce565b60405180910390f35b34801561046157600080fd5b5061046a61303e565b60405161047791906143ce565b60405180910390f35b34801561048c57600080fd5b506104a760048036038101906104a2919061441c565b6134df565b6040516104bd9a999897969594939291906148e9565b60405180910390f35b3480156104d257600080fd5b506104ed60048036038101906104e8919061499a565b613752565b005b3480156104fb57600080fd5b506105046139dd565b60405161051191906149f6565b60405180910390f35b34801561052657600080fd5b50610541600480360381019061053c9190614ab7565b6139e3565b005b34801561054f57600080fd5b5061056a60048036038101906105659190614036565b613ca8565b005b6060600080600190505b600454811161060457600260008573ffffffffffffffffffffffffffffffffffffffff1673ffffffffffffffffffffffffffffffffffffffff168152602001908152602001600020600082815260200190815260200160002060009054906101000a900460ff16156105f15781806105ed90614bc7565b9250505b80806105fc90614bc7565b915050610576565b5060008167ffffffffffffffff8111156106215761062061462a565b5b60405190808252806020026020018201604052801561065a57816020015b610647613f11565b81526020019060019003908161063f5790505b509050600080600190505b6004548111610a2b57600260008773ffffffffffffffffffffffffffffffffffffffff1673ffffffffffffffffffffffffffffffffffffffff168152602001908152602001600020600082815260200190815260200160002060009054906101000a900460ff1615610a18576001600082815260200190815260200160002060405180610140016040529081600082015481526020016001820160009054906101000a900473ffffffffffffffffffffffffffffffffffffffff1673ffffffffffffffffffffffffffffffffffffffff1673ffffffffffffffffffffffffffffffffffffffff16815260200160028201805461076090614c3e565b80601f016020809104026020016040519081016040528092919081815260200182805461078c90614c3e565b80156107d95780601f106107ae576101008083540402835291602001916107d9565b820191906000526020600020905b8154815290600101906020018083116107bc57829003601f168201915b505050505081526020016003820180546107f290614c3e565b80601f016020809104026020016040519081016040528092919081815260200182805461081e90614c3e565b801561086b5780601f106108405761010080835404028352916020019161086b565b820191906000526020600020905b81548152906001019060200180831161084e57829003601f168201915b5050505050815260200160048201805461088490614c3e565b80601f01602080910402602001604051908101604052809291908181526020018280546108b090614c3e565b80156108fd5780601f106108d2576101008083540402835291602001916108fd565b820191906000526020600020905b8154815290600101906020018083116108e057829003601f168201915b50505050508152602001600582015481526020016006820160009054906101000a900460ff161515151581526020016006820160019054906101000a900460ff1660028111156109505761094f614162565b5b600281111561096257610961614162565b5b81526020016006820160029054906101000a900460ff16600281111561098b5761098a614162565b5b600281111561099d5761099c614162565b5b8152602001600782016040518060400160405290816000820160009054906101000a900460ff161515151581526020016000820160019054906101000a900460ff161515151581525050815250508383815181106109fe576109fd614c6f565b5b60200260200101819052508180610a1490614bc7565b9250505b8080610a2390614bc7565b915050610665565b50819350505050919050565b610a3f613f11565b6001600083815260200190815260200160002060405180610140016040529081600082015481526020016001820160009054906101000a900473ffffffffffffffffffffffffffffffffffffffff1673ffffffffffffffffffffffffffffffffffffffff1673ffffffffffffffffffffffffffffffffffffffff168152602001600282018054610ace90614c3e565b80601f0160208091040260200160405190810160405280929190818152602001828054610afa90614c3e565b8015610b475780601f10610b1c57610100808354040283529160200191610b47565b820191906000526020600020905b815481529060010190602001808311610b2a57829003601f168201915b50505050508152602001600382018054610b6090614c3e565b80601f0160208091040260200160405190810160405280929190818152602001828054610b8c90614c3e565b8015610bd95780601f10610bae57610100808354040283529160200191610bd9565b820191906000526020600020905b815481529060010190602001808311610bbc57829003601f168201915b50505050508152602001600482018054610bf290614c3e565b80601f0160208091040260200160405190810160405280929190818152602001828054610c1e90614c3e565b8015610c6b5780601f10610c4057610100808354040283529160200191610c6b565b820191906000526020600020905b815481529060010190602001808311610c4e57829003601f168201915b50505050508152602001600582015481526020016006820160009054906101000a900460ff161515151581526020016006820160019054906101000a900460ff166002811115610cbe57610cbd614162565b5b6002811115610cd057610ccf614162565b5b81526020016006820160029054906101000a900460ff166002811115610cf957610cf8614162565b5b6002811115610d0b57610d0a614162565b5b8152602001600782016040518060400160405290816000820160009054906101000a900460ff161515151581526020016000820160019054906101000a900460ff161515151581525050815250509050919050565b60006001600083815260200190815260200160002090508060060160009054906101000a900460ff16610dc8576040517f08c379a0000000000000000000000000000000000000000000000000000000008152600401610dbf90614d10565b60405180910390fd5b8060050154341015610e0f576040517f08c379a0000000000000000000000000000000000000000000000000000000008152600401610e0690614da2565b60405180910390fd5b600260003373ffffffffffffffffffffffffffffffffffffffff1673ffffffffffffffffffffffffffffffffffffffff168152602001908152602001600020600083815260200190815260200160002060009054906101000a900460ff1615610ead576040517f08c379a0000000000000000000000000000000000000000000000000000000008152600401610ea490614e34565b60405180910390fd5b6001600260003373ffffffffffffffffffffffffffffffffffffffff1673ffffffffffffffffffffffffffffffffffffffff168152602001908152602001600020600084815260200190815260200160002060006101000a81548160ff0219169083151502179055508060010160009054906101000a900473ffffffffffffffffffffffffffffffffffffffff1673ffffffffffffffffffffffffffffffffffffffff166108fc82600501549081150290604051600060405180830381858888f19350505050158015610f84573d6000803e3d6000fd5b508060010160009054906101000a900473ffffffffffffffffffffffffffffffffffffffff1673ffffffffffffffffffffffffffffffffffffffff163373ffffffffffffffffffffffffffffffffffffffff16837f3e77e9393a45c5a50675c2e94bf40c4e7a9ce67139f3a6271215fd0ed2725f5d846004018560050154604051611010929190614eed565b60405180910390a45050565b6060600080600190505b60045481116110a0576001600281111561104357611042614162565b5b6001600083815260200190815260200160002060060160029054906101000a900460ff16600281111561107957611078614162565b5b0361108d57818061108990614bc7565b9250505b808061109890614bc7565b915050611026565b5060008167ffffffffffffffff8111156110bd576110bc61462a565b5b6040519080825280602002602001820160405280156110f657816020015b6110e3613f11565b8152602001906001900390816110db5790505b509050600080600190505b60045481116114b3576001600281111561111e5761111d614162565b5b6001600083815260200190815260200160002060060160029054906101000a900460ff16600281111561115457611153614162565b5b036114a0576001600082815260200190815260200160002060405180610140016040529081600082015481526020016001820160009054906101000a900473ffffffffffffffffffffffffffffffffffffffff1673ffffffffffffffffffffffffffffffffffffffff1673ffffffffffffffffffffffffffffffffffffffff1681526020016002820180546111e890614c3e565b80601f016020809104026020016040519081016040528092919081815260200182805461121490614c3e565b80156112615780601f1061123657610100808354040283529160200191611261565b820191906000526020600020905b81548152906001019060200180831161124457829003601f168201915b5050505050815260200160038201805461127a90614c3e565b80601f01602080910402602001604051908101604052809291908181526020018280546112a690614c3e565b80156112f35780601f106112c8576101008083540402835291602001916112f3565b820191906000526020600020905b8154815290600101906020018083116112d657829003601f168201915b5050505050815260200160048201805461130c90614c3e565b80601f016020809104026020016040519081016040528092919081815260200182805461133890614c3e565b80156113855780601f1061135a57610100808354040283529160200191611385565b820191906000526020600020905b81548152906001019060200180831161136857829003601f168201915b50505050508152602001600582015481526020016006820160009054906101000a900460ff161515151581526020016006820160019054906101000a900460ff1660028111156113d8576113d7614162565b5b60028111156113ea576113e9614162565b5b81526020016006820160029054906101000a900460ff16600281111561141357611412614162565b5b600281111561142557611424614162565b5b8152602001600782016040518060400160405290816000820160009054906101000a900460ff161515151581526020016000820160019054906101000a900460ff1615151515815250508152505083838151811061148657611485614c6f565b5b6020026020010181905250818061149c90614bc7565b9250505b80806114ab90614bc7565b915050611101565b5081935050505090565b6114c5613d2b565b6000600160008381526020019081526020016000209050600060028111156114f0576114ef614162565b5b8160060160029054906101000a900460ff16600281111561151457611513614162565b5b14611554576040517f08c379a000000000000000000000000000000000000000000000000000000000815260040161154b90614f69565b60405180910390fd5b60028160060160026101000a81548160ff0219169083600281111561157c5761157b614162565b5b02179055503373ffffffffffffffffffffffffffffffffffffffff16827fde509a899c3fdc6e07465915cffad24f3aab8d1ced315fcdef09fa6fc634fffd60405160405180910390a35050565b6060600080600190505b6004548111611667578373ffffffffffffffffffffffffffffffffffffffff166001600083815260200190815260200160002060010160009054906101000a900473ffffffffffffffffffffffffffffffffffffffff1673ffffffffffffffffffffffffffffffffffffffff160361165457818061165090614bc7565b9250505b808061165f90614bc7565b9150506115d3565b5060008167ffffffffffffffff8111156116845761168361462a565b5b6040519080825280602002602001820160405280156116bd57816020015b6116aa613f11565b8152602001906001900390816116a25790505b509050600080600190505b6004548111611a94578573ffffffffffffffffffffffffffffffffffffffff166001600083815260200190815260200160002060010160009054906101000a900473ffffffffffffffffffffffffffffffffffffffff1673ffffffffffffffffffffffffffffffffffffffff1603611a81576001600082815260200190815260200160002060405180610140016040529081600082015481526020016001820160009054906101000a900473ffffffffffffffffffffffffffffffffffffffff1673ffffffffffffffffffffffffffffffffffffffff1673ffffffffffffffffffffffffffffffffffffffff1681526020016002820180546117c990614c3e565b80601f01602080910402602001604051908101604052809291908181526020018280546117f590614c3e565b80156118425780601f1061181757610100808354040283529160200191611842565b820191906000526020600020905b81548152906001019060200180831161182557829003601f168201915b5050505050815260200160038201805461185b90614c3e565b80601f016020809104026020016040519081016040528092919081815260200182805461188790614c3e565b80156118d45780601f106118a9576101008083540402835291602001916118d4565b820191906000526020600020905b8154815290600101906020018083116118b757829003601f168201915b505050505081526020016004820180546118ed90614c3e565b80601f016020809104026020016040519081016040528092919081815260200182805461191990614c3e565b80156119665780601f1061193b57610100808354040283529160200191611966565b820191906000526020600020905b81548152906001019060200180831161194957829003601f168201915b50505050508152602001600582015481526020016006820160009054906101000a900460ff161515151581526020016006820160019054906101000a900460ff1660028111156119b9576119b8614162565b5b60028111156119cb576119ca614162565b5b81526020016006820160029054906101000a900460ff1660028111156119f4576119f3614162565b5b6002811115611a0657611a05614162565b5b8152602001600782016040518060400160405290816000820160009054906101000a900460ff161515151581526020016000820160019054906101000a900460ff16151515158152505081525050838381518110611a6757611a66614c6f565b5b60200260200101819052508180611a7d90614bc7565b9250505b8080611a8c90614bc7565b9150506116c8565b50819350505050919050565b60036020528060005260406000206000915054906101000a900460ff1681565b60026020528160005260406000206020528060005260406000206000915091509054906101000a900460ff1681565b6000611af9613f11565b6000600190505b6004548111611eac5783604051602001611b1a9190614fc5565b6040516020818303038152906040528051906020012060016000838152602001908152602001600020600401604051602001611b56919061505f565b6040516020818303038152906040528051906020012003611e995760018060008381526020019081526020016000208060405180610140016040529081600082015481526020016001820160009054906101000a900473ffffffffffffffffffffffffffffffffffffffff1673ffffffffffffffffffffffffffffffffffffffff1673ffffffffffffffffffffffffffffffffffffffff168152602001600282018054611c0290614c3e565b80601f0160208091040260200160405190810160405280929190818152602001828054611c2e90614c3e565b8015611c7b5780601f10611c5057610100808354040283529160200191611c7b565b820191906000526020600020905b815481529060010190602001808311611c5e57829003601f168201915b50505050508152602001600382018054611c9490614c3e565b80601f0160208091040260200160405190810160405280929190818152602001828054611cc090614c3e565b8015611d0d5780601f10611ce257610100808354040283529160200191611d0d565b820191906000526020600020905b815481529060010190602001808311611cf057829003601f168201915b50505050508152602001600482018054611d2690614c3e565b80601f0160208091040260200160405190810160405280929190818152602001828054611d5290614c3e565b8015611d9f5780601f10611d7457610100808354040283529160200191611d9f565b820191906000526020600020905b815481529060010190602001808311611d8257829003601f168201915b50505050508152602001600582015481526020016006820160009054906101000a900460ff161515151581526020016006820160019054906101000a900460ff166002811115611df257611df1614162565b5b6002811115611e0457611e03614162565b5b81526020016006820160029054906101000a900460ff166002811115611e2d57611e2c614162565b5b6002811115611e3f57611e3e614162565b5b8152602001600782016040518060400160405290816000820160009054906101000a900460ff161515151581526020016000820160019054906101000a900460ff1615151515815250508152505090509250925050611f83565b8080611ea490614bc7565b915050611b00565b50600060405180610140016040528060008152602001600073ffffffffffffffffffffffffffffffffffffffff1681526020016040518060200160405280600081525081526020016040518060200160405280600081525081526020016040518060200160405280600081525081526020016000815260200160001515815260200160006002811115611f4257611f41614162565b5b815260200160006002811115611f5b57611f5a614162565b5b8152602001604051806040016040528060001515815260200160001515815250815250915091505b915091565b611f90613d2b565b611f9a6000613da9565b565b803373ffffffffffffffffffffffffffffffffffffffff166001600083815260200190815260200160002060010160009054906101000a900473ffffffffffffffffffffffffffffffffffffffff1673ffffffffffffffffffffffffffffffffffffffff1614612041576040517f08c379a0000000000000000000000000000000000000000000000000000000008152600401612038906150e8565b60405180910390fd5b6001600083815260200190815260200160002060060160009054906101000a900460ff16156001600084815260200190815260200160002060060160006101000a81548160ff0219169083151502179055505050565b6060600080600190505b60045481116120f5576001600082815260200190815260200160002060060160009054906101000a900460ff16156120e25781806120de90614bc7565b9250505b80806120ed90614bc7565b9150506120a1565b5060008167ffffffffffffffff8111156121125761211161462a565b5b60405190808252806020026020018201604052801561214b57816020015b612138613f11565b8152602001906001900390816121305790505b509050600080600190505b60045481116124e2576001600082815260200190815260200160002060060160009054906101000a900460ff16156124cf576001600082815260200190815260200160002060405180610140016040529081600082015481526020016001820160009054906101000a900473ffffffffffffffffffffffffffffffffffffffff1673ffffffffffffffffffffffffffffffffffffffff1673ffffffffffffffffffffffffffffffffffffffff16815260200160028201805461221790614c3e565b80601f016020809104026020016040519081016040528092919081815260200182805461224390614c3e565b80156122905780601f1061226557610100808354040283529160200191612290565b820191906000526020600020905b81548152906001019060200180831161227357829003601f168201915b505050505081526020016003820180546122a990614c3e565b80601f01602080910402602001604051908101604052809291908181526020018280546122d590614c3e565b80156123225780601f106122f757610100808354040283529160200191612322565b820191906000526020600020905b81548152906001019060200180831161230557829003601f168201915b5050505050815260200160048201805461233b90614c3e565b80601f016020809104026020016040519081016040528092919081815260200182805461236790614c3e565b80156123b45780601f10612389576101008083540402835291602001916123b4565b820191906000526020600020905b81548152906001019060200180831161239757829003601f168201915b50505050508152602001600582015481526020016006820160009054906101000a900460ff161515151581526020016006820160019054906101000a900460ff16600281111561240757612406614162565b5b600281111561241957612418614162565b5b81526020016006820160029054906101000a900460ff16600281111561244257612441614162565b5b600281111561245457612453614162565b5b8152602001600782016040518060400160405290816000820160009054906101000a900460ff161515151581526020016000820160019054906101000a900460ff161515151581525050815250508383815181106124b5576124b4614c6f565b5b602002602001018190525081806124cb90614bc7565b9250505b80806124da90614bc7565b915050612156565b5081935050505090565b606060008060009050600080600190505b6004548111612644578573ffffffffffffffffffffffffffffffffffffffff166001600083815260200190815260200160002060010160009054906101000a900473ffffffffffffffffffffffffffffffffffffffff1673ffffffffffffffffffffffffffffffffffffffff1614801561259757506001600082815260200190815260200160002060060160009054906101000a900460ff165b80156125ea5750600160028111156125b2576125b1614162565b5b6001600083815260200190815260200160002060060160029054906101000a900460ff1660028111156125e8576125e7614162565b5b145b15612631576125f881613e6d565b1561263057828061260890614bc7565b93505060016000828152602001908152602001600020600501548261262d9190615108565b91505b5b808061263c90614bc7565b9150506124fd565b5060008267ffffffffffffffff8111156126615761266061462a565b5b60405190808252806020026020018201604052801561269a57816020015b612687613f11565b81526020019060019003908161267f5790505b509050600080600190505b6004548111612b00578773ffffffffffffffffffffffffffffffffffffffff166001600083815260200190815260200160002060010160009054906101000a900473ffffffffffffffffffffffffffffffffffffffff1673ffffffffffffffffffffffffffffffffffffffff1614801561273f57506001600082815260200190815260200160002060060160009054906101000a900460ff165b801561279257506001600281111561275a57612759614162565b5b6001600083815260200190815260200160002060060160029054906101000a900460ff1660028111156127905761278f614162565b5b145b15612aed576127a081613e6d565b15612aec576001600082815260200190815260200160002060405180610140016040529081600082015481526020016001820160009054906101000a900473ffffffffffffffffffffffffffffffffffffffff1673ffffffffffffffffffffffffffffffffffffffff1673ffffffffffffffffffffffffffffffffffffffff16815260200160028201805461283490614c3e565b80601f016020809104026020016040519081016040528092919081815260200182805461286090614c3e565b80156128ad5780601f10612882576101008083540402835291602001916128ad565b820191906000526020600020905b81548152906001019060200180831161289057829003601f168201915b505050505081526020016003820180546128c690614c3e565b80601f01602080910402602001604051908101604052809291908181526020018280546128f290614c3e565b801561293f5780601f106129145761010080835404028352916020019161293f565b820191906000526020600020905b81548152906001019060200180831161292257829003601f168201915b5050505050815260200160048201805461295890614c3e565b80601f016020809104026020016040519081016040528092919081815260200182805461298490614c3e565b80156129d15780601f106129a6576101008083540402835291602001916129d1565b820191906000526020600020905b8154815290600101906020018083116129b457829003601f168201915b50505050508152602001600582015481526020016006820160009054906101000a900460ff161515151581526020016006820160019054906101000a900460ff166002811115612a2457612a23614162565b5b6002811115612a3657612a35614162565b5b81526020016006820160029054906101000a900460ff166002811115612a5f57612a5e614162565b5b6002811115612a7157612a70614162565b5b8152602001600782016040518060400160405290816000820160009054906101000a900460ff161515151581526020016000820160019054906101000a900460ff16151515158152505081525050838381518110612ad257612ad1614c6f565b5b60200260200101819052508180612ae890614bc7565b9250505b5b8080612af890614bc7565b9150506126a5565b5081839550955050505050915091565b60008060009054906101000a900473ffffffffffffffffffffffffffffffffffffffff16905090565b612b41613fa6565b600160008381526020019081526020016000206007016040518060400160405290816000820160009054906101000a900460ff161515151581526020016000820160019054906101000a900460ff1615151515815250509050919050565b6060600080600190505b6004548111612c2257600280811115612bc557612bc4614162565b5b6001600083815260200190815260200160002060060160029054906101000a900460ff166002811115612bfb57612bfa614162565b5b03612c0f578180612c0b90614bc7565b9250505b8080612c1a90614bc7565b915050612ba9565b5060008167ffffffffffffffff811115612c3f57612c3e61462a565b5b604051908082528060200260200182016040528015612c7857816020015b612c65613f11565b815260200190600190039081612c5d5790505b509050600080600190505b600454811161303457600280811115612c9f57612c9e614162565b5b6001600083815260200190815260200160002060060160029054906101000a900460ff166002811115612cd557612cd4614162565b5b03613021576001600082815260200190815260200160002060405180610140016040529081600082015481526020016001820160009054906101000a900473ffffffffffffffffffffffffffffffffffffffff1673ffffffffffffffffffffffffffffffffffffffff1673ffffffffffffffffffffffffffffffffffffffff168152602001600282018054612d6990614c3e565b80601f0160208091040260200160405190810160405280929190818152602001828054612d9590614c3e565b8015612de25780601f10612db757610100808354040283529160200191612de2565b820191906000526020600020905b815481529060010190602001808311612dc557829003601f168201915b50505050508152602001600382018054612dfb90614c3e565b80601f0160208091040260200160405190810160405280929190818152602001828054612e2790614c3e565b8015612e745780601f10612e4957610100808354040283529160200191612e74565b820191906000526020600020905b815481529060010190602001808311612e5757829003601f168201915b50505050508152602001600482018054612e8d90614c3e565b80601f0160208091040260200160405190810160405280929190818152602001828054612eb990614c3e565b8015612f065780601f10612edb57610100808354040283529160200191612f06565b820191906000526020600020905b815481529060010190602001808311612ee957829003601f168201915b50505050508152602001600582015481526020016006820160009054906101000a900460ff161515151581526020016006820160019054906101000a900460ff166002811115612f5957612f58614162565b5b6002811115612f6b57612f6a614162565b5b81526020016006820160029054906101000a900460ff166002811115612f9457612f93614162565b5b6002811115612fa657612fa5614162565b5b8152602001600782016040518060400160405290816000820160009054906101000a900460ff161515151581526020016000820160019054906101000a900460ff1615151515815250508152505083838151811061300757613006614c6f565b5b6020026020010181905250818061301d90614bc7565b9250505b808061302c90614bc7565b915050612c83565b5081935050505090565b6060600080600190505b60045481116130c2576000600281111561306557613064614162565b5b6001600083815260200190815260200160002060060160029054906101000a900460ff16600281111561309b5761309a614162565b5b036130af5781806130ab90614bc7565b9250505b80806130ba90614bc7565b915050613048565b5060008167ffffffffffffffff8111156130df576130de61462a565b5b60405190808252806020026020018201604052801561311857816020015b613105613f11565b8152602001906001900390816130fd5790505b509050600080600190505b60045481116134d557600060028111156131405761313f614162565b5b6001600083815260200190815260200160002060060160029054906101000a900460ff16600281111561317657613175614162565b5b036134c2576001600082815260200190815260200160002060405180610140016040529081600082015481526020016001820160009054906101000a900473ffffffffffffffffffffffffffffffffffffffff1673ffffffffffffffffffffffffffffffffffffffff1673ffffffffffffffffffffffffffffffffffffffff16815260200160028201805461320a90614c3e565b80601f016020809104026020016040519081016040528092919081815260200182805461323690614c3e565b80156132835780601f1061325857610100808354040283529160200191613283565b820191906000526020600020905b81548152906001019060200180831161326657829003601f168201915b5050505050815260200160038201805461329c90614c3e565b80601f01602080910402602001604051908101604052809291908181526020018280546132c890614c3e565b80156133155780601f106132ea57610100808354040283529160200191613315565b820191906000526020600020905b8154815290600101906020018083116132f857829003601f168201915b5050505050815260200160048201805461332e90614c3e565b80601f016020809104026020016040519081016040528092919081815260200182805461335a90614c3e565b80156133a75780601f1061337c576101008083540402835291602001916133a7565b820191906000526020600020905b81548152906001019060200180831161338a57829003601f168201915b50505050508152602001600582015481526020016006820160009054906101000a900460ff161515151581526020016006820160019054906101000a900460ff1660028111156133fa576133f9614162565b5b600281111561340c5761340b614162565b5b81526020016006820160029054906101000a900460ff16600281111561343557613434614162565b5b600281111561344757613446614162565b5b8152602001600782016040518060400160405290816000820160009054906101000a900460ff161515151581526020016000820160019054906101000a900460ff161515151581525050815250508383815181106134a8576134a7614c6f565b5b602002602001018190525081806134be90614bc7565b9250505b80806134cd90614bc7565b915050613123565b5081935050505090565b60016020528060005260406000206000915090508060000154908060010160009054906101000a900473ffffffffffffffffffffffffffffffffffffffff169080600201805461352e90614c3e565b80601f016020809104026020016040519081016040528092919081815260200182805461355a90614c3e565b80156135a75780601f1061357c576101008083540402835291602001916135a7565b820191906000526020600020905b81548152906001019060200180831161358a57829003601f168201915b5050505050908060030180546135bc90614c3e565b80601f01602080910402602001604051908101604052809291908181526020018280546135e890614c3e565b80156136355780601f1061360a57610100808354040283529160200191613635565b820191906000526020600020905b81548152906001019060200180831161361857829003601f168201915b50505050509080600401805461364a90614c3e565b80601f016020809104026020016040519081016040528092919081815260200182805461367690614c3e565b80156136c35780601f10613698576101008083540402835291602001916136c3565b820191906000526020600020905b8154815290600101906020018083116136a657829003601f168201915b5050505050908060050154908060060160009054906101000a900460ff16908060060160019054906101000a900460ff16908060060160029054906101000a900460ff1690806007016040518060400160405290816000820160009054906101000a900460ff161515151581526020016000820160019054906101000a900460ff16151515158152505090508a565b61375a613d2b565b60006001600084815260200190815260200160002090506000600281111561378557613784614162565b5b8160060160029054906101000a900460ff1660028111156137a9576137a8614162565b5b146137e9576040517f08c379a00000000000000000000000000000000000000000000000000000000081526004016137e090614f69565b60405180910390fd5b6000826040516020016137fc9190614fc5565b6040516020818303038152906040528051906020012090506003600082815260200190815260200160002060009054906101000a900460ff1615613875576040517f08c379a000000000000000000000000000000000000000000000000000000000815260040161386c90615188565b60405180910390fd5b82826004019081613886919061533f565b5060018260060160006101000a81548160ff02191690831515021790555060018260060160026101000a81548160ff021916908360028111156138cc576138cb614162565b5b021790555060016003600083815260200190815260200160002060006101000a81548160ff0219169083151502179055503373ffffffffffffffffffffffffffffffffffffffff16847fff0391c86d08750af277dd496813bf415c212a98090e0f6807c72d7f35eab11360405160405180910390a38160010160009054906101000a900473ffffffffffffffffffffffffffffffffffffffff1673ffffffffffffffffffffffffffffffffffffffff16847f5c49d5cb567143db030ce31467e7da28403e55dc325819ff500714323f34d93d84600201856003018787600501548860060160019054906101000a900460ff166040516139cf959493929190615411565b60405180910390a350505050565b60045481565b6000845111613a27576040517f08c379a0000000000000000000000000000000000000000000000000000000008152600401613a1e906154c5565b60405180910390fd5b60046000815480929190613a3a90614bc7565b919050555060405180610140016040528060045481526020013373ffffffffffffffffffffffffffffffffffffffff168152602001878152602001868152602001858152602001848152602001600015158152602001836002811115613aa357613aa2614162565b5b815260200160006002811115613abc57613abb614162565b5b8152602001828152506001600060045481526020019081526020016000206000820151816000015560208201518160010160006101000a81548173ffffffffffffffffffffffffffffffffffffffff021916908373ffffffffffffffffffffffffffffffffffffffff1602179055506040820151816002019081613b40919061533f565b506060820151816003019081613b56919061533f565b506080820151816004019081613b6c919061533f565b5060a0820151816005015560c08201518160060160006101000a81548160ff02191690831515021790555060e08201518160060160016101000a81548160ff02191690836002811115613bc257613bc1614162565b5b02179055506101008201518160060160026101000a81548160ff02191690836002811115613bf357613bf2614162565b5b02179055506101208201518160070160008201518160000160006101000a81548160ff02191690831515021790555060208201518160000160016101000a81548160ff02191690831515021790555050509050503373ffffffffffffffffffffffffffffffffffffffff166004547ff6686b92f0b93f1786ac8783f0905a02578b07136c868108a30c959150c340058888888888604051613c989594939291906154e5565b60405180910390a3505050505050565b613cb0613d2b565b600073ffffffffffffffffffffffffffffffffffffffff168173ffffffffffffffffffffffffffffffffffffffff1603613d1f576040517f08c379a0000000000000000000000000000000000000000000000000000000008152600401613d16906155bf565b60405180910390fd5b613d2881613da9565b50565b613d33613f09565b73ffffffffffffffffffffffffffffffffffffffff16613d51612b10565b73ffffffffffffffffffffffffffffffffffffffff1614613da7576040517f08c379a0000000000000000000000000000000000000000000000000000000008152600401613d9e9061562b565b60405180910390fd5b565b60008060009054906101000a900473ffffffffffffffffffffffffffffffffffffffff169050816000806101000a81548173ffffffffffffffffffffffffffffffffffffffff021916908373ffffffffffffffffffffffffffffffffffffffff1602179055508173ffffffffffffffffffffffffffffffffffffffff168173ffffffffffffffffffffffffffffffffffffffff167f8be0079c531659141344cd1fd0a4f28419497f9722a3daafe3b4186f6b6457e060405160405180910390a35050565b600080600190505b6004548111613efe57600260008273ffffffffffffffffffffffffffffffffffffffff1673ffffffffffffffffffffffffffffffffffffffff168152602001908152602001600020600084815260200190815260200160002060009054906101000a900460ff1615613eeb576001915050613f04565b8080613ef690614bc7565b915050613e75565b50600090505b919050565b600033905090565b60405180610140016040528060008152602001600073ffffffffffffffffffffffffffffffffffffffff1681526020016060815260200160608152602001606081526020016000815260200160001515815260200160006002811115613f7a57613f79614162565b5b815260200160006002811115613f9357613f92614162565b5b8152602001613fa0613fa6565b81525090565b60405180604001604052806000151581526020016000151581525090565b6000604051905090565b600080fd5b600080fd5b600073ffffffffffffffffffffffffffffffffffffffff82169050919050565b600061400382613fd8565b9050919050565b61401381613ff8565b811461401e57600080fd5b50565b6000813590506140308161400a565b92915050565b60006020828403121561404c5761404b613fce565b5b600061405a84828501614021565b91505092915050565b600081519050919050565b600082825260208201905092915050565b6000819050602082019050919050565b6000819050919050565b6140a28161408f565b82525050565b6140b181613ff8565b82525050565b600081519050919050565b600082825260208201905092915050565b60005b838110156140f15780820151818401526020810190506140d6565b60008484015250505050565b6000601f19601f8301169050919050565b6000614119826140b7565b61412381856140c2565b93506141338185602086016140d3565b61413c816140fd565b840191505092915050565b60008115159050919050565b61415c81614147565b82525050565b7f4e487b7100000000000000000000000000000000000000000000000000000000600052602160045260246000fd5b600381106141a2576141a1614162565b5b50565b60008190506141b382614191565b919050565b60006141c3826141a5565b9050919050565b6141d3816141b8565b82525050565b600381106141ea576141e9614162565b5b50565b60008190506141fb826141d9565b919050565b600061420b826141ed565b9050919050565b61421b81614200565b82525050565b6040820160008201516142376000850182614153565b50602082015161424a6020850182614153565b50505050565b6000610160830160008301516142696000860182614099565b50602083015161427c60208601826140a8565b5060408301518482036040860152614294828261410e565b915050606083015184820360608601526142ae828261410e565b915050608083015184820360808601526142c8828261410e565b91505060a08301516142dd60a0860182614099565b5060c08301516142f060c0860182614153565b5060e083015161430360e08601826141ca565b50610100830151614318610100860182614212565b5061012083015161432d610120860182614221565b508091505092915050565b60006143448383614250565b905092915050565b6000602082019050919050565b600061436482614063565b61436e818561406e565b9350836020820285016143808561407f565b8060005b858110156143bc578484038952815161439d8582614338565b94506143a88361434c565b925060208a01995050600181019050614384565b50829750879550505050505092915050565b600060208201905081810360008301526143e88184614359565b905092915050565b6143f98161408f565b811461440457600080fd5b50565b600081359050614416816143f0565b92915050565b60006020828403121561443257614431613fce565b5b600061444084828501614407565b91505092915050565b6000610160830160008301516144626000860182614099565b50602083015161447560208601826140a8565b506040830151848203604086015261448d828261410e565b915050606083015184820360608601526144a7828261410e565b915050608083015184820360808601526144c1828261410e565b91505060a08301516144d660a0860182614099565b5060c08301516144e960c0860182614153565b5060e08301516144fc60e08601826141ca565b50610100830151614511610100860182614212565b50610120830151614526610120860182614221565b508091505092915050565b6000602082019050818103600083015261454b8184614449565b905092915050565b6000819050919050565b61456681614553565b811461457157600080fd5b50565b6000813590506145838161455d565b92915050565b60006020828403121561459f5761459e613fce565b5b60006145ad84828501614574565b91505092915050565b6145bf81614147565b82525050565b60006020820190506145da60008301846145b6565b92915050565b600080604083850312156145f7576145f6613fce565b5b600061460585828601614021565b925050602061461685828601614407565b9150509250929050565b600080fd5b600080fd5b7f4e487b7100000000000000000000000000000000000000000000000000000000600052604160045260246000fd5b614662826140fd565b810181811067ffffffffffffffff821117156146815761468061462a565b5b80604052505050565b6000614694613fc4565b90506146a08282614659565b919050565b600067ffffffffffffffff8211156146c0576146bf61462a565b5b6146c9826140fd565b9050602081019050919050565b82818337600083830152505050565b60006146f86146f3846146a5565b61468a565b90508281526020810184848401111561471457614713614625565b5b61471f8482856146d6565b509392505050565b600082601f83011261473c5761473b614620565b5b813561474c8482602086016146e5565b91505092915050565b60006020828403121561476b5761476a613fce565b5b600082013567ffffffffffffffff81111561478957614788613fd3565b5b61479584828501614727565b91505092915050565b60006040820190506147b360008301856145b6565b81810360208301526147c58184614449565b90509392505050565b6147d78161408f565b82525050565b600060408201905081810360008301526147f78185614359565b905061480660208301846147ce565b9392505050565b61481681613ff8565b82525050565b6000602082019050614831600083018461480d565b92915050565b60408201600082015161484d6000850182614153565b5060208201516148606020850182614153565b50505050565b600060408201905061487b6000830184614837565b92915050565b600082825260208201905092915050565b600061489d826140b7565b6148a78185614881565b93506148b78185602086016140d3565b6148c0816140fd565b840191505092915050565b6148d4816141b8565b82525050565b6148e381614200565b82525050565b6000610160820190506148ff600083018d6147ce565b61490c602083018c61480d565b818103604083015261491e818b614892565b90508181036060830152614932818a614892565b905081810360808301526149468189614892565b905061495560a08301886147ce565b61496260c08301876145b6565b61496f60e08301866148cb565b61497d6101008301856148da565b61498b610120830184614837565b9b9a5050505050505050505050565b600080604083850312156149b1576149b0613fce565b5b60006149bf85828601614407565b925050602083013567ffffffffffffffff8111156149e0576149df613fd3565b5b6149ec85828601614727565b9150509250929050565b6000602082019050614a0b60008301846147ce565b92915050565b60038110614a1e57600080fd5b50565b600081359050614a3081614a11565b92915050565b600080fd5b614a4481614147565b8114614a4f57600080fd5b50565b600081359050614a6181614a3b565b92915050565b600060408284031215614a7d57614a7c614a36565b5b614a87604061468a565b90506000614a9784828501614a52565b6000830152506020614aab84828501614a52565b60208301525092915050565b60008060008060008060e08789031215614ad457614ad3613fce565b5b600087013567ffffffffffffffff811115614af257614af1613fd3565b5b614afe89828a01614727565b965050602087013567ffffffffffffffff811115614b1f57614b1e613fd3565b5b614b2b89828a01614727565b955050604087013567ffffffffffffffff811115614b4c57614b4b613fd3565b5b614b5889828a01614727565b9450506060614b6989828a01614407565b9350506080614b7a89828a01614a21565b92505060a0614b8b89828a01614a67565b9150509295509295509295565b7f4e487b7100000000000000000000000000000000000000000000000000000000600052601160045260246000fd5b6000614bd28261408f565b91507fffffffffffffffffffffffffffffffffffffffffffffffffffffffffffffffff8203614c0457614c03614b98565b5b600182019050919050565b7f4e487b7100000000000000000000000000000000000000000000000000000000600052602260045260246000fd5b60006002820490506001821680614c5657607f821691505b602082108103614c6957614c68614c0f565b5b50919050565b7f4e487b7100000000000000000000000000000000000000000000000000000000600052603260045260246000fd5b7f5468697320636f6e74656e74206973206e6f7420617661696c61626c6520666f60008201527f722070757263686173652e000000000000000000000000000000000000000000602082015250565b6000614cfa602b83614881565b9150614d0582614c9e565b604082019050919050565b60006020820190508181036000830152614d2981614ced565b9050919050565b7f496e73756666696369656e742066756e647320746f207075726368617365207460008201527f68697320636f6e74656e742e0000000000000000000000000000000000000000602082015250565b6000614d8c602c83614881565b9150614d9782614d30565b604082019050919050565b60006020820190508181036000830152614dbb81614d7f565b9050919050565b7f596f75206861766520616c72656164792070757263686173656420746869732060008201527f636f6e74656e742e000000000000000000000000000000000000000000000000602082015250565b6000614e1e602883614881565b9150614e2982614dc2565b604082019050919050565b60006020820190508181036000830152614e4d81614e11565b9050919050565b60008190508160005260206000209050919050565b60008154614e7681614c3e565b614e808186614881565b94506001821660008114614e9b5760018114614eb157614ee4565b60ff198316865281151560200286019350614ee4565b614eba85614e54565b60005b83811015614edc57815481890152600182019150602081019050614ebd565b808801955050505b50505092915050565b60006040820190508181036000830152614f078185614e69565b9050614f1660208301846147ce565b9392505050565b7f436f6e74656e74206973206e6f742070656e64696e6720617070726f76616c2e600082015250565b6000614f53602083614881565b9150614f5e82614f1d565b602082019050919050565b60006020820190508181036000830152614f8281614f46565b9050919050565b600081905092915050565b6000614f9f826140b7565b614fa98185614f89565b9350614fb98185602086016140d3565b80840191505092915050565b6000614fd18284614f94565b915081905092915050565b60008154614fe981614c3e565b614ff38186614f89565b9450600182166000811461500e576001811461502357615056565b60ff1983168652811515820286019350615056565b61502c85614e54565b60005b8381101561504e5781548189015260018201915060208101905061502f565b838801955050505b50505092915050565b600061506b8284614fdc565b915081905092915050565b7f596f7520617265206e6f74207468652063726561746f72206f6620746869732060008201527f636f6e74656e742e000000000000000000000000000000000000000000000000602082015250565b60006150d2602883614881565b91506150dd82615076565b604082019050919050565b60006020820190508181036000830152615101816150c5565b9050919050565b60006151138261408f565b915061511e8361408f565b925082820190508082111561513657615135614b98565b5b92915050565b7f53696d696c617220636f6e74656e7420616c7265616479206578697374732e00600082015250565b6000615172601f83614881565b915061517d8261513c565b602082019050919050565b600060208201905081810360008301526151a181615165565b9050919050565b60006020601f8301049050919050565b600082821b905092915050565b6000600883026151f57fffffffffffffffffffffffffffffffffffffffffffffffffffffffffffffffff826151b8565b6151ff86836151b8565b95508019841693508086168417925050509392505050565b6000819050919050565b600061523c6152376152328461408f565b615217565b61408f565b9050919050565b6000819050919050565b61525683615221565b61526a61526282615243565b8484546151c5565b825550505050565b600090565b61527f615272565b61528a81848461524d565b505050565b5b818110156152ae576152a3600082615277565b600181019050615290565b5050565b601f8211156152f3576152c481614e54565b6152cd846151a8565b810160208510156152dc578190505b6152f06152e8856151a8565b83018261528f565b50505b505050565b600082821c905092915050565b6000615316600019846008026152f8565b1980831691505092915050565b600061532f8383615305565b9150826002028217905092915050565b615348826140b7565b67ffffffffffffffff8111156153615761536061462a565b5b61536b8254614c3e565b6153768282856152b2565b600060209050601f8311600181146153a95760008415615397578287015190505b6153a18582615323565b865550615409565b601f1984166153b786614e54565b60005b828110156153df578489015182556001820191506020850194506020810190506153ba565b868310156153fc57848901516153f8601f891682615305565b8355505b6001600288020188555050505b505050505050565b600060a082019050818103600083015261542b8188614e69565b9050818103602083015261543f8187614e69565b905081810360408301526154538186614892565b905061546260608301856147ce565b61546f60808301846148cb565b9695505050505050565b7f4950465320686173682069732072657175697265640000000000000000000000600082015250565b60006154af601583614881565b91506154ba82615479565b602082019050919050565b600060208201905081810360008301526154de816154a2565b9050919050565b600060a08201905081810360008301526154ff8188614892565b905081810360208301526155138187614892565b905081810360408301526155278186614892565b905061553660608301856147ce565b61554360808301846148cb565b9695505050505050565b7f4f776e61626c653a206e6577206f776e657220697320746865207a65726f206160008201527f6464726573730000000000000000000000000000000000000000000000000000602082015250565b60006155a9602683614881565b91506155b48261554d565b604082019050919050565b600060208201905081810360008301526155d88161559c565b9050919050565b7f4f776e61626c653a2063616c6c6572206973206e6f7420746865206f776e6572600082015250565b6000615615602083614881565b9150615620826155df565b602082019050919050565b6000602082019050818103600083015261564481615608565b905091905056fea2646970667358221220c0798af20ee11657ad109d1e6cdeb1132a42ab9ff93f94f46069d631f72487d164736f6c63430008180033",
  "linkReferences": {},
  "deployedLinkReferences": {}
}